:020000040800F2
:1000000000040020EF010008E10D0008970A000835
:10001000DD0D00089F030008D9160008000000004D
:10002000000000000000000000000000B9110008FE
:10003000A303000800000000550E0008A5150008E5
:100040000F0200080F0200080F0200080F0200084C
:100050000F0200080F0200080F0200080F0200083C
:100060000F0200080F0200080F0200080F0200082C
:100070000F0200080F0200080F0200080F0200081C
:100080000F0200080F0200080F0200080F0200080C
:100090000F0200080F0200080F0200080F020008FC
:1000A0000F0200080F0200080F0200080F020008EC
:1000B0000F0200080F0200080F0200080F020008DC
:1000C0000F0200080F0200080F0200080F020008CC
:1000D0000F0200080F0200080F0200080F020008BC
:1000E0000F0200080F0200080F0200080F020008AC
:1000F0000F0200080F0200080F0200080F0200089C
:100100000F0200080F0200080F0200080F0200088B
:100110000F0200080F0200080F0200080F0200087B
:100120000F0200080F0200080F0200080F0200086B
:1001300000F002F800F03AF80AA090E8000C8244BF
:100140008344AAF10107DA4501D100F02FF8AFF29C
:10015000090EBAE80F0013F0010F18BFFB1A43F0A5
:1001600001031847181B0000381B0000103A24BF79
:1001700078C878C1FAD8520724BF30C830C144BF0C
:1001800004680C607047000000230024002500264E
:10019000103A28BF78C1FBD8520728BF30C148BFEA
:1001A0000B6070471FB51FBD10B510BD00F0BEF845
:1001B0001146FFF7F7FF01F0D5FB00F0DCF803B4C0
:1001C000FFF7F2FF03BC00F0E3F80000EFF3098053
:1001D000704780F309887047EFF30880704780F319
:1001E0000888704740BA7047C0BA704770470B48DC
:1001F00080470B4981F308880A480047FEE7FEE77D
:10020000FEE7FEE7FEE7FEE7FEE7FEE7FEE7FEE7C6
:1002100005480649064A074B70470000ED010008F3
:10022000C80F002031010008C8050020C80F0020B9
:10023000C8070020C8070020032A40F2308010F0D1
:10024000030C00F0158011F8013BBCF1020F624471
:1002500098BF11F801CB00F8013B38BF11F8013B02
:10026000A2F1040298BF00F801CB38BF00F8013BAF
:1002700011F0030300F02880083AC0F0088051F81C
:10028000043B083A51F804CBA0E80810F5E7121D2A
:100290005CBF51F8043B40F8043BAFF30080D20749
:1002A00024BF11F8013B11F801CB48BF11F8012B15
:1002B00024BF00F8013B00F801CB48BF00F8012B38
:1002C000704770477047704710B5203AC0F00B80F8
:1002D000B1E81850203AA0E81850B1E81850A0E84A
:1002E0001850BFF4F5AF5FEA027C24BFB1E81850A4
:1002F000A0E8185044BF18C918C0BDE810405FEA14
:10030000827C24BF51F8043B40F8043B08BF70478F
:10031000D20728BF31F8023B48BF11F8012B28BF94
:1003200020F8023B48BF00F8012B7047754600F0EB
:100330002BF8AE4605006946534620F00700854677
:1003400018B020B5FFF764FFBDE820404FF000066D
:100350004FF000074FF000084FF0000B21F00701AD
:10036000AC46ACE8C009ACE8C009ACE8C009ACE8F0
:10037000C0098D46704710B50446AFF30080204693
:10038000BDE81040FFF71BBF004870476405002020
:1003900001491820ABBEFEE726000200704700BFEF
:1003A000FEE77047002123498279002A3AD00A46A5
:1003B000126803689A430B461A600A1D12680368A4
:1003C0009A430B1D1A60027911440A6803681A43A4
:1003D0000A60184A0832126803689A43154B0833BA
:1003E0001A601A1D126803689A43124B0C331A6084
:1003F0004279102A0ED11A1F126803681A430D4B56
:1004000008331A601A1D126803681A43094B0C332B
:100410001A600DE00749427911440A6803681A43DB
:100420000A6005E0027911440A6803689A430A6089
:1004300070470000000401402DE9F047002400252A
:10044000012602274FF004084FF0010900F084F95B
:1004500005462648006828402449096888423FD05C
:1004600000F074F904462148006828431F490860D9
:1004700000F0DAF881461D480068401C28B11B488E
:100480000068C04300F06EF8814604F007000728BA
:1004900011D004F0010000B9002604F0020000B9F8
:1004A000002704F0040008B94FF00008424639461E
:1004B000304600F0A9F9B9F1040F0DD10CA000F0FD
:1004C0006DFF134800F06AFF0121C80200F0C4FC70
:1004D0004F2001F003F906E00EA000F05FFF02E0FC
:1004E00017A000F05BFFBDE8F08700000C000020C3
:1004F00057726974652050726F74656374696F6EAA
:100500002064697361626C65642E2E2E0D0A0000F2
:10051000601A00084572726F723A20466C61736807
:1005200020777269746520756E70726F746563747C
:10053000696F6E206661696C65642E2E2E0D0A004F
:10054000466C617368206D656D6F7279206E6F7493
:100550002077726974652070726F74656374656466
:100560000D0A00002DE9F04704464FF6FF763746A6
:10057000B046B1460425E443E6B2C4F30727C4F30A
:1005800007484FEA14690F2000F074F90546042D5E
:100590003FD1214821498860214888600846006988
:1005A00040F010000861FF2E05D01E4806800F2085
:1005B00000F060F90546042D08D1FF2F06D0194838
:1005C000801C07800F2000F055F90546042D0AD144
:1005D000B8F1FF0F07D01348001DA0F800800F20CE
:1005E00000F048F90546042D0AD1B9F1FF0F07D0F4
:1005F0000C48801DA0F800900F2000F03BF9054644
:10060000052D06D00548006941F6EF710840034901
:1006100008612846BDE8F0872301674500200240B5
:10062000AB89EFCD08F8FF1F10B5042440F6FF702A
:1006300000F020F90446042C3BD11F481F49886074
:100640001F4888600846006940F02000086108469D
:10065000006940F04000086140F6FF7000F00AF9C0
:100660000446042C1CD11548006941F6DF7108408E
:10067000124908610846006940F010000861A52091
:10068000104908800F2000F0F5F80446052C10D022
:100690000A48006941F6EF7108400849086108E01E
:1006A000052C06D00548006941F6EF710840034962
:1006B0000861204610BD000023016745002002406C
:1006C000AB89EFCD00F8FF1F70B50546042440F656
:1006D000FF7000F0CFF80446042C19D10D480069D2
:1006E00040F002000B49086108464561006940F08E
:1006F0004000086140F6FF7000F0BCF80446052C8D
:1007000006D00448006941F6FD71084001490861BE
:10071000204670BD0020024004200B49C96801F04A
:10072000010109B101200EE00749C96801F0040187
:1007300009B1022007E00449C96801F0100109B1BC
:10074000032000E004207047002002400148C069F7
:1007500080087047002002400148006A704700008E
:100760000020024001B500200099C1F30A021AB12D
:10077000012202EBD12000E0C80A08BDF8B5064608
:100780000D460424002000900F2000F073F804466A
:10079000042C28D11548006940F001001349086174
:1007A00035800F2000F066F80446042C12D1B01CEE
:1007B0000090280C009908800F2000F05BF8044698
:1007C000052C10D00948006941F6FE710840074920
:1007D000086108E0052C06D00448006941F6FE7166
:1007E0000840024908612046F8BD00000020024090
:1007F0000248034948600348486070472301674541
:1008000000200240AB89EFCD2DE9F04105460E46B0
:1008100017460424134814498860144888600F2040
:1008200000F028F80446042C18D10F48006940F065
:1008300010000D49086147F0F800304328430C4987
:1008400008800F2000F016F80446052C06D0064854
:10085000006941F6EF710840034908612046BDE890
:10086000F08100002301674500200240AB89EFCDF5
:1008700002F8FF1F70B504460425FFF74DFF05463B
:1008800005E001F061F8FFF747FF0546641E012D02
:1008900001D1002CF5D104B90525284670BD000012
:1008A00030B500228B071C0F0F2303FA04F20B4B09
:1008B0008C1053F824309343084C8D1044F82530A5
:1008C00023468C1053F824308C07240F00FA04F4CC
:1008D0002343024C8D1044F8253030BD0800014000
:1008E0002DE9F041024600250026002000230024C7
:1008F000002791F803C00CF00F0591F803C00CF02D
:10090000100CBCF1000F03D091F802C04CEA0505B1
:1009100091F800C0BCF1000F31D0146800202BE02A
:100920004FF0010C0CFA00F3B1F800C00CEA03061A
:100930009E4220D183004FF00F0C0CFA03F7BC430A
:1009400005FA03FC4CEA040491F803C0BCF1280F3B
:1009500006D14FF0010C0CFA00FCC2F814C00AE0FA
:1009600091F803C0BCF1480F05D14FF0010C0CFA0F
:1009700000FCC2F810C0401C0828D1D31460B1F8A4
:1009800000C0BCF1FF0F34DD546800202EE000F100
:10099000080C4FF0010808FA0CF3B1F800C00CEA9B
:1009A00003069E4221D183004FF00F0C0CFA03F78F
:1009B000BC4305FA03FC4CEA040491F803C0BCF103
:1009C000280F05D100F1080C08FA0CF8C2F81480C1
:1009D00091F803C0BCF1480F07D100F1080C4FF0AB
:1009E000010808FA0CF8C2F81080401C0828CED381
:1009F0005460BDE8F0810000F0B50A4600230024F1
:100A000000210025174E7168C0F3034583B200F43E
:100A10004016B6F5401F08D121F07061114E76687E
:100A200026F070660F4F7E6012E000F48016B6F577
:100A3000801F06D1032606FA05F4A14341F0706138
:100A400006E0460D360103FA06F6B14341F0706147
:100A500022B1460D360103FA06F63143014E7160AC
:100A6000F0BD0000000001400246002093680B40EA
:100A70000BB1012000E00020704708B50020009075
:100A800004E0684600F068FC00B100E0F9E700BF50
:100A90009DF8000008BD00BFFEE71FB500F084FD13
:100AA0004FF4E13000900020ADF80400ADF80600EE
:100AB000ADF80800ADF80C000C20ADF80A0069464E
:100AC000002000F0C3FA1FBDF0B5144A0025002431
:100AD000002320E0B1FBF2F6303606F0FF0C2E4684
:100AE0006D1C00F806C0B1FBF2F602FB16110A26D7
:100AF000B2FBF6F26E1E865D302E01D1012600E0BB
:100B000000260CB9012700E000273E400EB1002569
:100B100000E0641C5B1C0A2BDCD3F0BD00CA9A3BCE
:100B2000002439480068A0F10060000B37490860D4
:100B3000084600683E2808D208460178012088400F
:100B4000401EC0433249086003E04FF00040304986
:100B50000860FFF701FE2E49096808402C49096822
:100B6000884212D001202B4908702BA000F016FCFF
:100B700039A000F013FC48A000F010FC56A000F0D3
:100B80000DFC65A000F00AFC0EE000202149087071
:100B900021A000F003FC30A000F000FC3EA000F01B
:100BA000FDFB5DA000F0FAFB2CE0FFF766FF0446BA
:100BB000312C02D100F008FB24E0322C0FD1664822
:100BC00040686649086008460068654908606249EF
:100BD0000868FFF704FB62480068804712E0332C86
:100BE00006D10C480078012802D1FFF725FC09E066
:100BF0000848007818B95BA000F0D0FB02E068A0BC
:100C000000F0CCFBD1E70000140000200800002019
:100C10000C000020100000200D0A3D3D3D3D3D3DF3
:100C20003D3D3D3D3D3D3D3D3D3D3D3D204D6169B1
:100C30006E204D656E75203D3D3D3D3D3D3D3D3D4C
:100C40003D3D3D3D3D3D3D3D3D3D3D3D3D3D3D3DD4
:100C50003D3D3D0D0A0A00002020446F776E6C6F09
:100C6000616420496D61676520546F207468652058
:100C700053544D33324631307820496E7465726E6C
:100C8000616C20466C617368202D2D2D2D2D2D2D2E
:100C900020310D0A0A000000202045786563757434
:100CA0006520546865204E65772050726F677261C9
:100CB0006D202D2D2D2D2D2D2D2D2D2D2D2D2D2D31
:100CC0002D2D2D2D2D2D2D2D2D2D2D2D2D2D2D2D54
:100CD00020320D0A0A000000202044697361626C12
:100CE00065207468652077726974652070726F740E
:100CF000656374696F6E202D2D2D2D2D2D2D2D2DBD
:100D00002D2D2D2D2D2D2D2D2D2D2D2D2D2D2D2D13
:100D100020330D0A0A0000003D3D3D3D3D3D3D3D77
:100D20003D3D3D3D3D3D3D3D3D3D3D3D3D3D3D3DF3
:100D30003D3D3D3D3D3D3D3D3D3D3D3D3D3D3D3DE3
:100D40003D3D3D3D3D3D3D3D3D3D3D3D3D3D3D3DD3
:100D50003D3D0D0A0A0000000020000804000020AC
:100D600000000020496E76616C6964204E756D62EA
:100D700065722021203D3D3E20546865206E756DD2
:100D80006265722073686F756C64206265206569A6
:100D9000746865722031206F7220320D00000000EF
:100DA000496E76616C6964204E756D6265722021B2
:100DB000203D3D3E20546865206E756D6265722051
:100DC00073686F756C64206265206569746865720C
:100DD00020312C2032206F7220330D0000BFFEE73F
:100DE0007047000070B5002100230F22C47804B3BF
:100DF000154C246804F4E064C4F5E064210AC1F1F0
:100E00000403CA40447804FA03F18478144021436F
:100E100009010E4C0678A155047804F01F05012441
:100E2000AC4005786D11AD0005F1E025C5F8004135
:100E300009E0047804F01F050124AC40044D067855
:100E4000761145F8264070BD0CED00E000E400E0AE
:100E500080E100E07047000029B1064AD2690243F0
:100E6000044BDA6104E0034AD2698243014BDA6140
:100E7000704700000010024029B1064A92690243FF
:100E8000044B9A6104E0034A92698243014B9A61E0
:100E9000704700000010024030B5002100220024FD
:100EA00000232D4D6D6805F00C0121B1042905D0FA
:100EB000082923D105E0294D056022E0274D056072
:100EC0001FE0254D6D6805F47012234D6D6805F423
:100ED0008034022505EB92421CB9214D5543056033
:100EE0000BE01D4D6D6805F400351DB11C4D5543DB
:100EF000056002E0194D5543056002E0174D05609D
:100F000000BF00BF144D6D6805F0F0010909154DD3
:100F10006B5C0568DD4045600F4D6D6805F4E06170
:100F2000090A104D6B5C4568DD4085600A4D6D68AF
:100F300005F46051C90A0B4D6B5C4568DD40C56026
:100F4000054D6D6805F44041890B074D6B5CC56824
:100F5000B5FBF3F5056130BD0010024000127A00C8
:100F600000093D00500000206000002070B50546DB
:100F70000C4606E0284600F0EFF9012801D10020D8
:100F800070BD201EA4F10104F4D1401EF8E72DE944
:100F9000F84304460D4690460020286041466846C6
:100FA000FFF7E4FF18B14FF0FF30BDE8F8839DF87C
:100FB0000000182813D006DC012809D0022809D027
:100FC000042820D109E041281AD061281BD118E05B
:100FD00080271BE04FF4806718E00020E5E74146DA
:100FE0006846FFF7C3FF40B99DF80000182804D1F8
:100FF0004FF0FF3028600020D7E74FF0FF30D4E7F4
:1010000000BF0120D1E74FF0FF30CEE700BF9DF8D1
:1010100000002070012609E0A0194146FFF7A6FF55
:1010200010B14FF0FF30C0E7701C86B2781D8642C9
:10103000F2DB6178A07880F0FF00814202D04FF0AF
:10104000FF30B2E72F600020AFE7000038B504465C
:101050000D461F4951F8241041F001000121FFF70E
:101060000BFF4CB901210820FFF7C6FC194951F8C4
:1010700024000121FFF7F0FE174830F81400ADF806
:10108000000018208DF8030003208DF8020013499A
:1010900051F824006946FFF723FC114830F814008A
:1010A000ADF8000004208DF803000C4951F824002D
:1010B0006946FFF715FC0B4951F82400294600F05A
:1010C000B7FA084951F82400012100F097FA38BD19
:1010D000581A0008541A00085C1A00084C00002036
:1010E0005E1A00084800002010B50446044A32F891
:1010F0001410044A52F82400FFF7B6FC10BD00009B
:10110000281A00083C0000207FB504460D462349FC
:1011100051F8241041F001000121FFF7ADFE2048F5
:1011200030F81400ADF80C0004208DF80F001D49B4
:1011300051F8240003A9FFF7D3FB012D2CD11A4A43
:1011400012F81410194A12F81400FFF7A9FB1848F6
:1011500030F81400019000208DF808001CB10C201C
:101160008DF8090002E008208DF8090001208DF8B3
:101170000A0001A8FFF716F90E4810F814008DF8C0
:1011800000000F208DF801008DF8020001208DF87D
:1011900003006846FFF726FE7FBD0000301A0008F6
:1011A000281A00083C000020481A0008421A0008CB
:1011B0003C1A00084E1A0008704710B50446204635
:1011C00000F0DCF8002010BD3EB51DA207CA8DE876
:1011D000070000241DA000F0E1F82B4800F086FA7B
:1011E0000446002C16DD294800F0D8F8284800F005
:1011F000D5F821466846FFF767FC26A000F0CEF838
:10120000684600F0CBF826A000F0C8F827A000F050
:10121000C5F814E0601C18B92AA000F0BFF80EE071
:10122000A01C18B937A000F0B9F808E0E01C18B904
:101230003BA000F0B3F802E03FA000F0AFF83EBDE5
:1012400020202020202020202020000057616974C9
:10125000696E6720666F72207468652066696C65C8
:1012600020746F2062652073656E74202E2E2E20F0
:101270002870726573732027612720746F20616264
:101280006F7274290A0D000064000020AC1A000877
:10129000640400200A0D2053697A653A200000009A
:1012A0002042797465730D0A000000002D2D2D2D4C
:1012B0002D2D2D2D2D2D2D2D2D2D2D2D2D2D2D0A81
:1012C000000000000A0A0D54686520696D616765B9
:1012D0002073697A65206973206869676865722080
:1012E0007468616E2074686520616C6C6F776564EA
:1012F000207370616365206D656D6F7279210A0DD1
:10130000000000000A0A0D5665726966696361741F
:10131000696F6E206661696C6564210A0D000000CA
:101320000D0A0A41626F72746564206279207573D8
:1013300065722E0A0D0000000A0D4661696C656435
:1013400020746F2072656365697665207468652016
:1013500066696C65210A0D0010B504462021064817
:1013600000F058F928B10448001D008820700120C1
:1013700010BD0020FCE700000044004010B504460A
:101380002146054800F0A4F900BF8021024800F082
:1013900041F90028F9D010BD0044004010B50446C2
:1013A00003E02078FFF7EAFF641C20780028F8D1DA
:1013B00010BD10B500F002F810BD00000CB5002003
:1013C000019000903448006840F480303249086051
:1013D00000BF3148006800F4003000900198401CC4
:1013E0000190009818B90198B0F5A06FF1D12A4882
:1013F000006800F4003010B10120009001E00020EE
:1014000000900098012844D12448006840F0100062
:10141000224908600846006820F00300086008467A
:10142000006840F0020008601B4840681A494860A4
:101430000846406848600846406840F4806048605C
:101440000846406820F47C1048600846406840F434
:10145000E81048600846006840F08070086000BFEF
:101460000D48006800F000700028F9D00A48406874
:1014700020F00300084948600846406840F0020038
:10148000486000BF0448406800F00C000828F9D10B
:1014900001E000BFFEE70CBD00100240002002404A
:1014A00070B502460C460021002500231078302834
:1014B00043D15078782802D0507858283DD1907880
:1014C00008B9002070BD022130E0505C10B92360E3
:1014D00001252DE0505C412802DB505C46280BDDE5
:1014E000505C612802DB505C662805DD505C3028CA
:1014F00019DB505C392816DC505C302805DB505C69
:10150000392802DC505C30380AE0505C412805DBA9
:10151000505C462802DC505C373801E0505C57389C
:1015200000EB031301E0002502E0491C0B29CCD39A
:1015300000BF0B2934D3002532E000212AE0505CA3
:1015400010B92360012527E0505C6B2802D0505C65
:101550004B2804D119B19B02236001251CE0505C8B
:101560006D2802D0505C4D2804D119B11B052360B1
:10157000012511E0505C302809DB505C392806DC7D
:10158000505C303803EB830600EB460301E0002596
:1015900002E0491C0B29D2D300BF0B2900D3002540
:1015A00028468FE77047000010B51148006840F0EA
:1015B00001000F490860084640680E4908400C4980
:1015C0004860084600680C49084009490860084618
:1015D000006820F4802008600846406820F4FE007F
:1015E00048604FF41F008860FFF7E3FE10BD000065
:1015F000001002400000FFF8FFFFF6FE21B18289D3
:1016000042F40052828104E082894DF6FF731A4051
:101610008281704702460020B1F5007F00D100BFF3
:1016200013880B400BB1012000E000207047000040
:101630002DE9F04786B005460E460024A24600BFBD
:1016400000BF0027B08900B100BF2F462C8A4CF69E
:10165000FF700440F08804432C82AC894EF6F310EE
:101660000440B08831890843718908430443AC8140
:10167000AC8A4FF6FF400440B0890443AC8201A815
:10168000FFF70AFC1148874202D1DDF810A001E003
:10169000DDF80CA00AEBCA0000EB0A1031688900E3
:1016A000B0FBF1F86420B8FBF0F0040120096421DC
:1016B00001FB1089322000EB0910B0FBF1F000F0C3
:1016C0000F0004432C8106B0BDE8F08700380140CC
:1016D000C1F308028280704700BFFEE740F080013E
:1016E000014A116070470000002C00402DE9F04FC6
:1016F000ADF22C4D0646002001908B488B490860C6
:101700004FF0000B4FF0000A0020029000BF0027AE
:1017100000200390B04600BF4FF4801204A909A82E
:10172000FFF735FC10B101287ED1D0E04FF0000A60
:101730000498B0F1FF3F01D070B907E00620FFF731
:101740003CFD00200DF22C4DBDE8F08F0620FFF788
:1017500034FD01200390B8E09DF82500F9B28842DD
:1017600003D01520FFF729FDAFE0002F6ED19DF8C3
:101770002700002863D000250DF1270405E014F8A8
:10178000012B28466D1C6A490A54207808B1FF2DA8
:10179000F5DD002228466D1C65490A540025641CAD
:1017A00005E014F8012B28466D1C05A90A54207881
:1017B000202801D0102DF4DB002228466D1C05A93D
:1017C0000A5401A905A8FFF76BFE0198B0F5002F98
:1017D00008DB1820FFF7F1FC1820FFF7EEFC4FF0B4
:1017E000FF30AFE70198FEF7BDFF524908600020C7
:1017F0005149086010E04D490968504A12884E4B23
:101800001B6802FB0310FEF75FFF4D4908704A4852
:101810000068401C48490860474800684549096815
:10182000884205D2464800E05AE000780428E2D019
:101830000620FFF7C2FC4320FFF7BFFC42E0062072
:10184000FFF7BBFC0120039083463EE00DF127012A
:101850004046049AFEF7F0FC3A4806604FF0000953
:1018600023E038480068016830480068FEF786FFCA
:101870002E4800680068334909680968884208D022
:101880001820FFF79AFC1820FFF797FC6FF0010073
:1018900058E726480068001D244908602948006868
:1018A000001D2849086009F104090498814506DAF9
:1018B0001D49019808441D4909688842D1D806206D
:1018C000FFF77BFC7F1C0120029000BF1CE018206A
:1018D000FFF773FC1820FFF770FC6FF0020031E790
:1018E0000298002801DD0AF1010ABAF1050F07DDAF
:1018F0001820FFF762FC1820FFF75FFC002021E7AB
:101900004320FFF75AFC00BF00BF039800283FF4B4
:1019100003AF00BF00BFBBF1000F3FF4F8AE00BF44
:1019200000BF01980EE7000000200008140000200E
:1019300064040020200000201C000020180000206B
:10194000240000202800002008B500200090FF207F
:10195000009002E00098401E009000980028F9D105
:1019600008BD0000FEF744FF00210220FFF7CCFB7A
:101970000220FFF7B9FBE0B9FFF78FF81948FFF72E
:101980000DFD1948FFF70AFD1848FFF707FD184835
:10199000FFF704FD1548FFF701FD1648FFF7FEFCB1
:1019A0001048FFF7FBFC14A0FFF7F8FCFFF7B8F8AE
:1019B00015E01348006813490840B0F1005F0ED1EC
:1019C0000F48406810490860084600680F490860E1
:1019D0000B490868FEF703FC0C480068804700BF0D
:1019E000FEE70000301C00084C1B0008001B00082C
:1019F000E41B0008981B00080D0A0D0A00000000F7
:101A0000002000080000FE2F04000020000000203D
:101A100080000020080010002000000020000000CE
:101A20002000000020000000010000200002000053
:101A30000400000010000000080000000100002069
:101A4000000200000200010000000D000900060075
:101A500028001700000002002000000020004000C5
:101A60002E2E2E616E6420612053797374656D2073
:101A700052657365742077696C6C206265206765B8
:101A80006E65726174656420746F2072652D6C6F71
:101A9000616420746865206E6577206F7074696F6B
:101AA0006E2062797465730D0A0000000A0A0D2029
:101AB00050726F6772616D6D696E6720436F6D70F4
:101AC0006C65746564205375636365737366756CC8
:101AD0006C79210A0D2D2D2D2D2D2D2D2D2D2D2DFA
:101AE0002D2D2D2D2D2D2D2D2D2D2D2D2D2D2D2D26
:101AF0002D2D2D2D2D0D0A204E616D653A200000F3
:101B00000D0A3D20202020202020202020202020E1
:101B100020202020202020202020202020202020C5
:101B200020202020202020202020202020202020B5
:101B300020202020202020202020202020202020A5
:101B4000202020202020203D000000000D0A3D2004
:101B50002020202020202020202020202028432951
:101B600020434F5059524947485420323030392091
:101B700053544D6963726F656C656374726F6E69FF
:101B800063732020202020202020202020202020BF
:101B90002020203D000000000D0A3D2020202020B4
:101BA0002020202020202020202020202020202035
:101BB00020202020202020202020202020204279AA
:101BC000204D4344204170706C69636174696F6E8D
:101BD000205465616D202020202020202020203DE1
:101BE000000000000D0A3D2020202020496E2D41DC
:101BF00070706C69636174696F6E2050726F677288
:101C0000616D6D696E67204170706C6963617469A4
:101C10006F6E20202856657273696F6E20332E31E7
:101C20002E302920202020202020203D00000000F0
:101C30000D0A3D3D3D3D3D3D3D3D3D3D3D3D3D3D37
:101C40003D3D3D3D3D3D3D3D3D3D3D3D3D3D3D3DC4
:101C50003D3D3D3D3D3D3D3D3D3D3D3D3D3D3D3DB4
:101C60003D3D3D3D3D3D3D3D3D3D3D3D3D3D3D3DA4
:101C70003D3D3D3D3D3D3D3D000000009C1C0008BC
:101C800000000020640000006C010008001D000836
:101C900064000020640F00008801000800000000BC
:101CA0000000000000000000000000000000000034
:101CB00000200008000800000000000000000000F4
:101CC0000400000000000000001401400014014066
:101CD00000140140001401400008014000100140C0
:101CE000000C0140004400400014014000000000CE
:101CF000010203040102030406070809020406089E
:0400000508000131BD
:00000001FF
